{
  "contractName": "NewoData",
  "abi": [
    {
      "inputs": [],
      "stateMutability": "nonpayable",
      "type": "constructor"
    },
    {
      "anonymous": false,
      "inputs": [
        {
          "indexed": true,
          "internalType": "address",
          "name": "owner",
          "type": "address"
        },
        {
          "indexed": true,
          "internalType": "address",
          "name": "approved",
          "type": "address"
        },
        {
          "indexed": true,
          "internalType": "uint256",
          "name": "tokenId",
          "type": "uint256"
        }
      ],
      "name": "Approval",
      "type": "event"
    },
    {
      "anonymous": false,
      "inputs": [
        {
          "indexed": true,
          "internalType": "address",
          "name": "owner",
          "type": "address"
        },
        {
          "indexed": true,
          "internalType": "address",
          "name": "operator",
          "type": "address"
        },
        {
          "indexed": false,
          "internalType": "bool",
          "name": "approved",
          "type": "bool"
        }
      ],
      "name": "ApprovalForAll",
      "type": "event"
    },
    {
      "anonymous": false,
      "inputs": [
        {
          "indexed": true,
          "internalType": "address",
          "name": "previousOwner",
          "type": "address"
        },
        {
          "indexed": true,
          "internalType": "address",
          "name": "newOwner",
          "type": "address"
        }
      ],
      "name": "OwnershipTransferred",
      "type": "event"
    },
    {
      "anonymous": false,
      "inputs": [
        {
          "indexed": true,
          "internalType": "address",
          "name": "from",
          "type": "address"
        },
        {
          "indexed": true,
          "internalType": "address",
          "name": "to",
          "type": "address"
        },
        {
          "indexed": true,
          "internalType": "uint256",
          "name": "tokenId",
          "type": "uint256"
        }
      ],
      "name": "Transfer",
      "type": "event"
    },
    {
      "inputs": [
        {
          "internalType": "address",
          "name": "to",
          "type": "address"
        },
        {
          "internalType": "uint256",
          "name": "tokenId",
          "type": "uint256"
        }
      ],
      "name": "approve",
      "outputs": [],
      "stateMutability": "nonpayable",
      "type": "function"
    },
    {
      "inputs": [
        {
          "internalType": "address",
          "name": "owner",
          "type": "address"
        }
      ],
      "name": "balanceOf",
      "outputs": [
        {
          "internalType": "uint256",
          "name": "",
          "type": "uint256"
        }
      ],
      "stateMutability": "view",
      "type": "function",
      "constant": true
    },
    {
      "inputs": [
        {
          "internalType": "uint256",
          "name": "tokenId",
          "type": "uint256"
        }
      ],
      "name": "getApproved",
      "outputs": [
        {
          "internalType": "address",
          "name": "",
          "type": "address"
        }
      ],
      "stateMutability": "view",
      "type": "function",
      "constant": true
    },
    {
      "inputs": [
        {
          "internalType": "address",
          "name": "owner",
          "type": "address"
        },
        {
          "internalType": "address",
          "name": "operator",
          "type": "address"
        }
      ],
      "name": "isApprovedForAll",
      "outputs": [
        {
          "internalType": "bool",
          "name": "",
          "type": "bool"
        }
      ],
      "stateMutability": "view",
      "type": "function",
      "constant": true
    },
    {
      "inputs": [],
      "name": "name",
      "outputs": [
        {
          "internalType": "string",
          "name": "",
          "type": "string"
        }
      ],
      "stateMutability": "view",
      "type": "function",
      "constant": true
    },
    {
      "inputs": [],
      "name": "owner",
      "outputs": [
        {
          "internalType": "address",
          "name": "",
          "type": "address"
        }
      ],
      "stateMutability": "view",
      "type": "function",
      "constant": true
    },
    {
      "inputs": [
        {
          "internalType": "uint256",
          "name": "tokenId",
          "type": "uint256"
        }
      ],
      "name": "ownerOf",
      "outputs": [
        {
          "internalType": "address",
          "name": "",
          "type": "address"
        }
      ],
      "stateMutability": "view",
      "type": "function",
      "constant": true
    },
    {
      "inputs": [],
      "name": "renounceOwnership",
      "outputs": [],
      "stateMutability": "nonpayable",
      "type": "function"
    },
    {
      "inputs": [
        {
          "internalType": "address",
          "name": "from",
          "type": "address"
        },
        {
          "internalType": "address",
          "name": "to",
          "type": "address"
        },
        {
          "internalType": "uint256",
          "name": "tokenId",
          "type": "uint256"
        }
      ],
      "name": "safeTransferFrom",
      "outputs": [],
      "stateMutability": "nonpayable",
      "type": "function"
    },
    {
      "inputs": [
        {
          "internalType": "address",
          "name": "from",
          "type": "address"
        },
        {
          "internalType": "address",
          "name": "to",
          "type": "address"
        },
        {
          "internalType": "uint256",
          "name": "tokenId",
          "type": "uint256"
        },
        {
          "internalType": "bytes",
          "name": "_data",
          "type": "bytes"
        }
      ],
      "name": "safeTransferFrom",
      "outputs": [],
      "stateMutability": "nonpayable",
      "type": "function"
    },
    {
      "inputs": [
        {
          "internalType": "address",
          "name": "operator",
          "type": "address"
        },
        {
          "internalType": "bool",
          "name": "approved",
          "type": "bool"
        }
      ],
      "name": "setApprovalForAll",
      "outputs": [],
      "stateMutability": "nonpayable",
      "type": "function"
    },
    {
      "inputs": [
        {
          "internalType": "bytes4",
          "name": "interfaceId",
          "type": "bytes4"
        }
      ],
      "name": "supportsInterface",
      "outputs": [
        {
          "internalType": "bool",
          "name": "",
          "type": "bool"
        }
      ],
      "stateMutability": "view",
      "type": "function",
      "constant": true
    },
    {
      "inputs": [],
      "name": "symbol",
      "outputs": [
        {
          "internalType": "string",
          "name": "",
          "type": "string"
        }
      ],
      "stateMutability": "view",
      "type": "function",
      "constant": true
    },
    {
      "inputs": [
        {
          "internalType": "uint256",
          "name": "index",
          "type": "uint256"
        }
      ],
      "name": "tokenByIndex",
      "outputs": [
        {
          "internalType": "uint256",
          "name": "",
          "type": "uint256"
        }
      ],
      "stateMutability": "view",
      "type": "function",
      "constant": true
    },
    {
      "inputs": [
        {
          "internalType": "address",
          "name": "owner",
          "type": "address"
        },
        {
          "internalType": "uint256",
          "name": "index",
          "type": "uint256"
        }
      ],
      "name": "tokenOfOwnerByIndex",
      "outputs": [
        {
          "internalType": "uint256",
          "name": "",
          "type": "uint256"
        }
      ],
      "stateMutability": "view",
      "type": "function",
      "constant": true
    },
    {
      "inputs": [
        {
          "internalType": "uint256",
          "name": "tokenId",
          "type": "uint256"
        }
      ],
      "name": "tokenURI",
      "outputs": [
        {
          "internalType": "string",
          "name": "",
          "type": "string"
        }
      ],
      "stateMutability": "view",
      "type": "function",
      "constant": true
    },
    {
      "inputs": [],
      "name": "totalSupply",
      "outputs": [
        {
          "internalType": "uint256",
          "name": "",
          "type": "uint256"
        }
      ],
      "stateMutability": "view",
      "type": "function",
      "constant": true
    },
    {
      "inputs": [
        {
          "internalType": "address",
          "name": "from",
          "type": "address"
        },
        {
          "internalType": "address",
          "name": "to",
          "type": "address"
        },
        {
          "internalType": "uint256",
          "name": "tokenId",
          "type": "uint256"
        }
      ],
      "name": "transferFrom",
      "outputs": [],
      "stateMutability": "nonpayable",
      "type": "function"
    },
    {
      "inputs": [
        {
          "internalType": "address",
          "name": "newOwner",
          "type": "address"
        }
      ],
      "name": "transferOwnership",
      "outputs": [],
      "stateMutability": "nonpayable",
      "type": "function"
    },
    {
      "inputs": [
        {
          "internalType": "string",
          "name": "profile",
          "type": "string"
        },
        {
          "internalType": "string",
          "name": "friends",
          "type": "string"
        },
        {
          "internalType": "string",
          "name": "posts",
          "type": "string"
        }
      ],
      "name": "mintNewo",
      "outputs": [],
      "stateMutability": "nonpayable",
      "type": "function"
    },
    {
      "inputs": [
        {
          "internalType": "uint256",
          "name": "tokId",
          "type": "uint256"
        }
      ],
      "name": "getProfile",
      "outputs": [
        {
          "internalType": "string",
          "name": "",
          "type": "string"
        }
      ],
      "stateMutability": "view",
      "type": "function",
      "constant": true
    },
    {
      "inputs": [
        {
          "internalType": "uint256",
          "name": "tokId",
          "type": "uint256"
        }
      ],
      "name": "getFriends",
      "outputs": [
        {
          "internalType": "string",
          "name": "",
          "type": "string"
        }
      ],
      "stateMutability": "view",
      "type": "function",
      "constant": true
    },
    {
      "inputs": [
        {
          "internalType": "uint256",
          "name": "tokId",
          "type": "uint256"
        }
      ],
      "name": "getPosts",
      "outputs": [
        {
          "internalType": "string",
          "name": "",
          "type": "string"
        }
      ],
      "stateMutability": "view",
      "type": "function",
      "constant": true
    }
  ],
  "bytecode": "0x60806040523480156200001157600080fd5b506040518060400160405280600881526020017f4e65776f446174610000000000000000000000000000000000000000000000008152506040518060400160405280600481526020017f4e45574f00000000000000000000000000000000000000000000000000000000815250816000908051906020019062000096929190620001a6565b508060019080519060200190620000af929190620001a6565b505050620000d2620000c6620000d860201b60201c565b620000e060201b60201c565b620002bb565b600033905090565b6000600a60009054906101000a900473ffffffffffffffffffffffffffffffffffffffff16905081600a60006101000a81548173ffffffffffffffffffffffffffffffffffffffff021916908373ffffffffffffffffffffffffffffffffffffffff1602179055508173ffffffffffffffffffffffffffffffffffffffff168173ffffffffffffffffffffffffffffffffffffffff167f8be0079c531659141344cd1fd0a4f28419497f9722a3daafe3b4186f6b6457e060405160405180910390a35050565b828054620001b49062000256565b90600052602060002090601f016020900481019282620001d8576000855562000224565b82601f10620001f357805160ff191683800117855562000224565b8280016001018555821562000224579182015b828111156200022357825182559160200191906001019062000206565b5b50905062000233919062000237565b5090565b5b808211156200025257600081600090555060010162000238565b5090565b600060028204905060018216806200026f57607f821691505b602082108114156200028657620002856200028c565b5b50919050565b7f4e487b7100000000000000000000000000000000000000000000000000000000600052602260045260246000fd5b61398980620002cb6000396000f3fe608060405234801561001057600080fd5b506004361061014d5760003560e01c80636352211e116100c3578063b88d4fde1161007c578063b88d4fde146103c4578063c87b56dd146103e0578063de057f6c14610410578063e985e9c51461042c578063f08f4f641461045c578063f2fde38b1461048c5761014d565b80636352211e1461030257806370a0823114610332578063715018a6146103625780638da5cb5b1461036c57806395d89b411461038a578063a22cb465146103a85761014d565b80631c9a53ce116101155780631c9a53ce1461020a5780631d45cddc1461023a57806323b872dd1461026a5780632f745c591461028657806342842e0e146102b65780634f6ccce7146102d25761014d565b806301ffc9a71461015257806306fdde0314610182578063081812fc146101a0578063095ea7b3146101d057806318160ddd146101ec575b600080fd5b61016c60048036038101906101679190612835565b6104a8565b6040516101799190612d3b565b60405180910390f35b61018a610522565b6040516101979190612d56565b60405180910390f35b6101ba60048036038101906101b5919061291e565b6105b4565b6040516101c79190612cd4565b60405180910390f35b6101ea60048036038101906101e591906127f9565b610639565b005b6101f4610751565b6040516102019190612fd8565b60405180910390f35b610224600480360381019061021f919061291e565b61075e565b6040516102319190612d56565b60405180910390f35b610254600480360381019061024f919061291e565b61084b565b6040516102619190612d56565b60405180910390f35b610284600480360381019061027f91906126f3565b610938565b005b6102a0600480360381019061029b91906127f9565b610998565b6040516102ad9190612fd8565b60405180910390f35b6102d060048036038101906102cb91906126f3565b610a3d565b005b6102ec60048036038101906102e7919061291e565b610a5d565b6040516102f99190612fd8565b60405180910390f35b61031c6004803603810190610317919061291e565b610af4565b6040516103299190612cd4565b60405180910390f35b61034c6004803603810190610347919061268e565b610ba6565b6040516103599190612fd8565b60405180910390f35b61036a610c5e565b005b610374610ce6565b6040516103819190612cd4565b60405180910390f35b610392610d10565b60405161039f9190612d56565b60405180910390f35b6103c260048036038101906103bd91906127bd565b610da2565b005b6103de60048036038101906103d99190612742565b610db8565b005b6103fa60048036038101906103f5919061291e565b610e1a565b6040516104079190612d56565b60405180910390f35b61042a60048036038101906104259190612887565b610ec1565b005b610446600480360381019061044191906126b7565b610f61565b6040516104539190612d3b565b60405180910390f35b6104766004803603810190610471919061291e565b610ff5565b6040516104839190612d56565b60405180910390f35b6104a660048036038101906104a1919061268e565b6110e2565b005b60007f780e9d63000000000000000000000000000000000000000000000000000000007bffffffffffffffffffffffffffffffffffffffffffffffffffffffff1916827bffffffffffffffffffffffffffffffffffffffffffffffffffffffff1916148061051b575061051a826111da565b5b9050919050565b6060600080546105319061322e565b80601f016020809104026020016040519081016040528092919081815260200182805461055d9061322e565b80156105aa5780601f1061057f576101008083540402835291602001916105aa565b820191906000526020600020905b81548152906001019060200180831161058d57829003601f168201915b5050505050905090565b60006105bf826112bc565b6105fe576040517f08c379a00000000000000000000000000000000000000000000000000000000081526004016105f590612f18565b60405180910390fd5b6004600083815260200190815260200160002060009054906101000a900473ffffffffffffffffffffffffffffffffffffffff169050919050565b600061064482610af4565b90508073ffffffffffffffffffffffffffffffffffffffff168373ffffffffffffffffffffffffffffffffffffffff1614156106b5576040517f08c379a00000000000000000000000000000000000000000000000000000000081526004016106ac90612f78565b60405180910390fd5b8073ffffffffffffffffffffffffffffffffffffffff166106d4611328565b73ffffffffffffffffffffffffffffffffffffffff1614806107035750610702816106fd611328565b610f61565b5b610742576040517f08c379a000000000000000000000000000000000000000000000000000000000815260040161073990612e98565b60405180910390fd5b61074c8383611330565b505050565b6000600880549050905090565b6060610769826112bc565b6107a8576040517f08c379a000000000000000000000000000000000000000000000000000000000815260040161079f90612e58565b60405180910390fd5b600d600083815260200190815260200160002080546107c69061322e565b80601f01602080910402602001604051908101604052809291908181526020018280546107f29061322e565b801561083f5780601f106108145761010080835404028352916020019161083f565b820191906000526020600020905b81548152906001019060200180831161082257829003601f168201915b50505050509050919050565b6060610856826112bc565b610895576040517f08c379a000000000000000000000000000000000000000000000000000000000815260040161088c90612e58565b60405180910390fd5b600e600083815260200190815260200160002080546108b39061322e565b80601f01602080910402602001604051908101604052809291908181526020018280546108df9061322e565b801561092c5780601f106109015761010080835404028352916020019161092c565b820191906000526020600020905b81548152906001019060200180831161090f57829003601f168201915b50505050509050919050565b610949610943611328565b826113e9565b610988576040517f08c379a000000000000000000000000000000000000000000000000000000000815260040161097f90612f98565b60405180910390fd5b6109938383836114c7565b505050565b60006109a383610ba6565b82106109e4576040517f08c379a00000000000000000000000000000000000000000000000000000000081526004016109db90612d78565b60405180910390fd5b600660008473ffffffffffffffffffffffffffffffffffffffff1673ffffffffffffffffffffffffffffffffffffffff168152602001908152602001600020600083815260200190815260200160002054905092915050565b610a5883838360405180602001604052806000815250610db8565b505050565b6000610a67610751565b8210610aa8576040517f08c379a0000000000000000000000000000000000000000000000000000000008152600401610a9f90612fb8565b60405180910390fd5b60088281548110610ae2577f4e487b7100000000000000000000000000000000000000000000000000000000600052603260045260246000fd5b90600052602060002001549050919050565b6000806002600084815260200190815260200160002060009054906101000a900473ffffffffffffffffffffffffffffffffffffffff169050600073ffffffffffffffffffffffffffffffffffffffff168173ffffffffffffffffffffffffffffffffffffffff161415610b9d576040517f08c379a0000000000000000000000000000000000000000000000000000000008152600401610b9490612ed8565b60405180910390fd5b80915050919050565b60008073ffffffffffffffffffffffffffffffffffffffff168273ffffffffffffffffffffffffffffffffffffffff161415610c17576040517f08c379a0000000000000000000000000000000000000000000000000000000008152600401610c0e90612eb8565b60405180910390fd5b600360008373ffffffffffffffffffffffffffffffffffffffff1673ffffffffffffffffffffffffffffffffffffffff168152602001908152602001600020549050919050565b610c66611328565b73ffffffffffffffffffffffffffffffffffffffff16610c84610ce6565b73ffffffffffffffffffffffffffffffffffffffff1614610cda576040517f08c379a0000000000000000000000000000000000000000000000000000000008152600401610cd190612f38565b60405180910390fd5b610ce4600061172e565b565b6000600a60009054906101000a900473ffffffffffffffffffffffffffffffffffffffff16905090565b606060018054610d1f9061322e565b80601f0160208091040260200160405190810160405280929190818152602001828054610d4b9061322e565b8015610d985780601f10610d6d57610100808354040283529160200191610d98565b820191906000526020600020905b815481529060010190602001808311610d7b57829003601f168201915b5050505050905090565b610db4610dad611328565b83836117f4565b5050565b610dc9610dc3611328565b836113e9565b610e08576040517f08c379a0000000000000000000000000000000000000000000000000000000008152600401610dff90612f98565b60405180910390fd5b610e1484848484611961565b50505050565b6060610e25826112bc565b610e64576040517f08c379a0000000000000000000000000000000000000000000000000000000008152600401610e5b90612f58565b60405180910390fd5b6000610e6e6119bd565b90506000815111610e8e5760405180602001604052806000815250610eb9565b80610e98846119d4565b604051602001610ea9929190612cb0565b6040516020818303038152906040525b915050919050565b610ecb600b611b81565b6000610ed7600b611b97565b905083600c60008381526020019081526020016000209080519060200190610f009291906124b2565b5082600d60008381526020019081526020016000209080519060200190610f289291906124b2565b5081600e60008381526020019081526020016000209080519060200190610f509291906124b2565b50610f5b3382611ba5565b50505050565b6000600560008473ffffffffffffffffffffffffffffffffffffffff1673ffffffffffffffffffffffffffffffffffffffff16815260200190815260200160002060008373ffffffffffffffffffffffffffffffffffffffff1673ffffffffffffffffffffffffffffffffffffffff16815260200190815260200160002060009054906101000a900460ff16905092915050565b6060611000826112bc565b61103f576040517f08c379a000000000000000000000000000000000000000000000000000000000815260040161103690612e58565b60405180910390fd5b600c6000838152602001908152602001600020805461105d9061322e565b80601f01602080910402602001604051908101604052809291908181526020018280546110899061322e565b80156110d65780601f106110ab576101008083540402835291602001916110d6565b820191906000526020600020905b8154815290600101906020018083116110b957829003601f168201915b50505050509050919050565b6110ea611328565b73ffffffffffffffffffffffffffffffffffffffff16611108610ce6565b73ffffffffffffffffffffffffffffffffffffffff161461115e576040517f08c379a000000000000000000000000000000000000000000000000000000000815260040161115590612f38565b60405180910390fd5b600073ffffffffffffffffffffffffffffffffffffffff168173ffffffffffffffffffffffffffffffffffffffff1614156111ce576040517f08c379a00000000000000000000000000000000000000000000000000000000081526004016111c590612db8565b60405180910390fd5b6111d78161172e565b50565b60007f80ac58cd000000000000000000000000000000000000000000000000000000007bffffffffffffffffffffffffffffffffffffffffffffffffffffffff1916827bffffffffffffffffffffffffffffffffffffffffffffffffffffffff191614806112a557507f5b5e139f000000000000000000000000000000000000000000000000000000007bffffffffffffffffffffffffffffffffffffffffffffffffffffffff1916827bffffffffffffffffffffffffffffffffffffffffffffffffffffffff1916145b806112b557506112b482611bc3565b5b9050919050565b60008073ffffffffffffffffffffffffffffffffffffffff166002600084815260200190815260200160002060009054906101000a900473ffffffffffffffffffffffffffffffffffffffff1673ffffffffffffffffffffffffffffffffffffffff1614159050919050565b600033905090565b816004600083815260200190815260200160002060006101000a81548173ffffffffffffffffffffffffffffffffffffffff021916908373ffffffffffffffffffffffffffffffffffffffff160217905550808273ffffffffffffffffffffffffffffffffffffffff166113a383610af4565b73ffffffffffffffffffffffffffffffffffffffff167f8c5be1e5ebec7d5bd14f71427d1e84f3dd0314c0f7b2291e5b200ac8c7c3b92560405160405180910390a45050565b60006113f4826112bc565b611433576040517f08c379a000000000000000000000000000000000000000000000000000000000815260040161142a90612e78565b60405180910390fd5b600061143e83610af4565b90508073ffffffffffffffffffffffffffffffffffffffff168473ffffffffffffffffffffffffffffffffffffffff1614806114ad57508373ffffffffffffffffffffffffffffffffffffffff16611495846105b4565b73ffffffffffffffffffffffffffffffffffffffff16145b806114be57506114bd8185610f61565b5b91505092915050565b8273ffffffffffffffffffffffffffffffffffffffff166114e782610af4565b73ffffffffffffffffffffffffffffffffffffffff161461153d576040517f08c379a000000000000000000000000000000000000000000000000000000000815260040161153490612dd8565b60405180910390fd5b600073ffffffffffffffffffffffffffffffffffffffff168273ffffffffffffffffffffffffffffffffffffffff1614156115ad576040517f08c379a00000000000000000000000000000000000000000000000000000000081526004016115a490612e18565b60405180910390fd5b6115b8838383611c2d565b6115c3600082611330565b6001600360008573ffffffffffffffffffffffffffffffffffffffff1673ffffffffffffffffffffffffffffffffffffffff16815260200190815260200160002060008282546116139190613144565b925050819055506001600360008473ffffffffffffffffffffffffffffffffffffffff1673ffffffffffffffffffffffffffffffffffffffff168152602001908152602001600020600082825461166a91906130bd565b92505081905550816002600083815260200190815260200160002060006101000a81548173ffffffffffffffffffffffffffffffffffffffff021916908373ffffffffffffffffffffffffffffffffffffffff160217905550808273ffffffffffffffffffffffffffffffffffffffff168473ffffffffffffffffffffffffffffffffffffffff167fddf252ad1be2c89b69c2b068fc378daa952ba7f163c4a11628f55a4df523b3ef60405160405180910390a4611729838383611d41565b505050565b6000600a60009054906101000a900473ffffffffffffffffffffffffffffffffffffffff16905081600a60006101000a81548173ffffffffffffffffffffffffffffffffffffffff021916908373ffffffffffffffffffffffffffffffffffffffff1602179055508173ffffffffffffffffffffffffffffffffffffffff168173ffffffffffffffffffffffffffffffffffffffff167f8be0079c531659141344cd1fd0a4f28419497f9722a3daafe3b4186f6b6457e060405160405180910390a35050565b8173ffffffffffffffffffffffffffffffffffffffff168373ffffffffffffffffffffffffffffffffffffffff161415611863576040517f08c379a000000000000000000000000000000000000000000000000000000000815260040161185a90612e38565b60405180910390fd5b80600560008573ffffffffffffffffffffffffffffffffffffffff1673ffffffffffffffffffffffffffffffffffffffff16815260200190815260200160002060008473ffffffffffffffffffffffffffffffffffffffff1673ffffffffffffffffffffffffffffffffffffffff16815260200190815260200160002060006101000a81548160ff0219169083151502179055508173ffffffffffffffffffffffffffffffffffffffff168373ffffffffffffffffffffffffffffffffffffffff167f17307eab39ab6107e8899845ad3d59bd9653f200f220920489ca2b5937696c31836040516119549190612d3b565b60405180910390a3505050565b61196c8484846114c7565b61197884848484611d46565b6119b7576040517f08c379a00000000000000000000000000000000000000000000000000000000081526004016119ae90612d98565b60405180910390fd5b50505050565b606060405180602001604052806000815250905090565b60606000821415611a1c576040518060400160405280600181526020017f30000000000000000000000000000000000000000000000000000000000000008152509050611b7c565b600082905060005b60008214611a4e578080611a3790613291565b915050600a82611a479190613113565b9150611a24565b60008167ffffffffffffffff811115611a90577f4e487b7100000000000000000000000000000000000000000000000000000000600052604160045260246000fd5b6040519080825280601f01601f191660200182016040528015611ac25781602001600182028036833780820191505090505b5090505b60008514611b7557600182611adb9190613144565b9150600a85611aea91906132da565b6030611af691906130bd565b60f81b818381518110611b32577f4e487b7100000000000000000000000000000000000000000000000000000000600052603260045260246000fd5b60200101907effffffffffffffffffffffffffffffffffffffffffffffffffffffffffffff1916908160001a905350600a85611b6e9190613113565b9450611ac6565b8093505050505b919050565b6001816000016000828254019250508190555050565b600081600001549050919050565b611bbf828260405180602001604052806000815250611edd565b5050565b60007f01ffc9a7000000000000000000000000000000000000000000000000000000007bffffffffffffffffffffffffffffffffffffffffffffffffffffffff1916827bffffffffffffffffffffffffffffffffffffffffffffffffffffffff1916149050919050565b611c38838383611f38565b600073ffffffffffffffffffffffffffffffffffffffff168373ffffffffffffffffffffffffffffffffffffffff161415611c7b57611c7681611f3d565b611cba565b8173ffffffffffffffffffffffffffffffffffffffff168373ffffffffffffffffffffffffffffffffffffffff1614611cb957611cb88382611f86565b5b5b600073ffffffffffffffffffffffffffffffffffffffff168273ffffffffffffffffffffffffffffffffffffffff161415611cfd57611cf8816120f3565b611d3c565b8273ffffffffffffffffffffffffffffffffffffffff168273ffffffffffffffffffffffffffffffffffffffff1614611d3b57611d3a8282612236565b5b5b505050565b505050565b6000611d678473ffffffffffffffffffffffffffffffffffffffff166122b5565b15611ed0578373ffffffffffffffffffffffffffffffffffffffff1663150b7a02611d90611328565b8786866040518563ffffffff1660e01b8152600401611db29493929190612cef565b602060405180830381600087803b158015611dcc57600080fd5b505af1925050508015611dfd57506040513d601f19601f82011682018060405250810190611dfa919061285e565b60015b611e80573d8060008114611e2d576040519150601f19603f3d011682016040523d82523d6000602084013e611e32565b606091505b50600081511415611e78576040517f08c379a0000000000000000000000000000000000000000000000000000000008152600401611e6f90612d98565b60405180910390fd5b805181602001fd5b63150b7a0260e01b7bffffffffffffffffffffffffffffffffffffffffffffffffffffffff1916817bffffffffffffffffffffffffffffffffffffffffffffffffffffffff191614915050611ed5565b600190505b949350505050565b611ee783836122d8565b611ef46000848484611d46565b611f33576040517f08c379a0000000000000000000000000000000000000000000000000000000008152600401611f2a90612d98565b60405180910390fd5b505050565b505050565b6008805490506009600083815260200190815260200160002081905550600881908060018154018082558091505060019003906000526020600020016000909190919091505550565b60006001611f9384610ba6565b611f9d9190613144565b9050600060076000848152602001908152602001600020549050818114612082576000600660008673ffffffffffffffffffffffffffffffffffffffff1673ffffffffffffffffffffffffffffffffffffffff168152602001908152602001600020600084815260200190815260200160002054905080600660008773ffffffffffffffffffffffffffffffffffffffff1673ffffffffffffffffffffffffffffffffffffffff168152602001908152602001600020600084815260200190815260200160002081905550816007600083815260200190815260200160002081905550505b6007600084815260200190815260200160002060009055600660008573ffffffffffffffffffffffffffffffffffffffff1673ffffffffffffffffffffffffffffffffffffffff16815260200190815260200160002060008381526020019081526020016000206000905550505050565b600060016008805490506121079190613144565b905060006009600084815260200190815260200160002054905060006008838154811061215d577f4e487b7100000000000000000000000000000000000000000000000000000000600052603260045260246000fd5b9060005260206000200154905080600883815481106121a5577f4e487b7100000000000000000000000000000000000000000000000000000000600052603260045260246000fd5b90600052602060002001819055508160096000838152602001908152602001600020819055506009600085815260200190815260200160002060009055600880548061221a577f4e487b7100000000000000000000000000000000000000000000000000000000600052603160045260246000fd5b6001900381819060005260206000200160009055905550505050565b600061224183610ba6565b905081600660008573ffffffffffffffffffffffffffffffffffffffff1673ffffffffffffffffffffffffffffffffffffffff168152602001908152602001600020600083815260200190815260200160002081905550806007600084815260200190815260200160002081905550505050565b6000808273ffffffffffffffffffffffffffffffffffffffff163b119050919050565b600073ffffffffffffffffffffffffffffffffffffffff168273ffffffffffffffffffffffffffffffffffffffff161415612348576040517f08c379a000000000000000000000000000000000000000000000000000000000815260040161233f90612ef8565b60405180910390fd5b612351816112bc565b15612391576040517f08c379a000000000000000000000000000000000000000000000000000000000815260040161238890612df8565b60405180910390fd5b61239d60008383611c2d565b6001600360008473ffffffffffffffffffffffffffffffffffffffff1673ffffffffffffffffffffffffffffffffffffffff16815260200190815260200160002060008282546123ed91906130bd565b92505081905550816002600083815260200190815260200160002060006101000a81548173ffffffffffffffffffffffffffffffffffffffff021916908373ffffffffffffffffffffffffffffffffffffffff160217905550808273ffffffffffffffffffffffffffffffffffffffff16600073ffffffffffffffffffffffffffffffffffffffff167fddf252ad1be2c89b69c2b068fc378daa952ba7f163c4a11628f55a4df523b3ef60405160405180910390a46124ae60008383611d41565b5050565b8280546124be9061322e565b90600052602060002090601f0160209004810192826124e05760008555612527565b82601f106124f957805160ff1916838001178555612527565b82800160010185558215612527579182015b8281111561252657825182559160200191906001019061250b565b5b5090506125349190612538565b5090565b5b80821115612551576000816000905550600101612539565b5090565b600061256861256384613018565b612ff3565b90508281526020810184848401111561258057600080fd5b61258b8482856131ec565b509392505050565b60006125a66125a184613049565b612ff3565b9050828152602081018484840111156125be57600080fd5b6125c98482856131ec565b509392505050565b6000813590506125e0816138f7565b92915050565b6000813590506125f58161390e565b92915050565b60008135905061260a81613925565b92915050565b60008151905061261f81613925565b92915050565b600082601f83011261263657600080fd5b8135612646848260208601612555565b91505092915050565b600082601f83011261266057600080fd5b8135612670848260208601612593565b91505092915050565b6000813590506126888161393c565b92915050565b6000602082840312156126a057600080fd5b60006126ae848285016125d1565b91505092915050565b600080604083850312156126ca57600080fd5b60006126d8858286016125d1565b92505060206126e9858286016125d1565b9150509250929050565b60008060006060848603121561270857600080fd5b6000612716868287016125d1565b9350506020612727868287016125d1565b925050604061273886828701612679565b9150509250925092565b6000806000806080858703121561275857600080fd5b6000612766878288016125d1565b9450506020612777878288016125d1565b935050604061278887828801612679565b925050606085013567ffffffffffffffff8111156127a557600080fd5b6127b187828801612625565b91505092959194509250565b600080604083850312156127d057600080fd5b60006127de858286016125d1565b92505060206127ef858286016125e6565b9150509250929050565b6000806040838503121561280c57600080fd5b600061281a858286016125d1565b925050602061282b85828601612679565b9150509250929050565b60006020828403121561284757600080fd5b6000612855848285016125fb565b91505092915050565b60006020828403121561287057600080fd5b600061287e84828501612610565b91505092915050565b60008060006060848603121561289c57600080fd5b600084013567ffffffffffffffff8111156128b657600080fd5b6128c28682870161264f565b935050602084013567ffffffffffffffff8111156128df57600080fd5b6128eb8682870161264f565b925050604084013567ffffffffffffffff81111561290857600080fd5b6129148682870161264f565b9150509250925092565b60006020828403121561293057600080fd5b600061293e84828501612679565b91505092915050565b61295081613178565b82525050565b61295f8161318a565b82525050565b60006129708261307a565b61297a8185613090565b935061298a8185602086016131fb565b612993816133c7565b840191505092915050565b60006129a982613085565b6129b381856130a1565b93506129c38185602086016131fb565b6129cc816133c7565b840191505092915050565b60006129e282613085565b6129ec81856130b2565b93506129fc8185602086016131fb565b80840191505092915050565b6000612a15602b836130a1565b9150612a20826133d8565b604082019050919050565b6000612a386032836130a1565b9150612a4382613427565b604082019050919050565b6000612a5b6026836130a1565b9150612a6682613476565b604082019050919050565b6000612a7e6025836130a1565b9150612a89826134c5565b604082019050919050565b6000612aa1601c836130a1565b9150612aac82613514565b602082019050919050565b6000612ac46024836130a1565b9150612acf8261353d565b604082019050919050565b6000612ae76019836130a1565b9150612af28261358c565b602082019050919050565b6000612b0a6014836130a1565b9150612b15826135b5565b602082019050919050565b6000612b2d602c836130a1565b9150612b38826135de565b604082019050919050565b6000612b506038836130a1565b9150612b5b8261362d565b604082019050919050565b6000612b73602a836130a1565b9150612b7e8261367c565b604082019050919050565b6000612b966029836130a1565b9150612ba1826136cb565b604082019050919050565b6000612bb96020836130a1565b9150612bc48261371a565b602082019050919050565b6000612bdc602c836130a1565b9150612be782613743565b604082019050919050565b6000612bff6020836130a1565b9150612c0a82613792565b602082019050919050565b6000612c22602f836130a1565b9150612c2d826137bb565b604082019050919050565b6000612c456021836130a1565b9150612c508261380a565b604082019050919050565b6000612c686031836130a1565b9150612c7382613859565b604082019050919050565b6000612c8b602c836130a1565b9150612c96826138a8565b604082019050919050565b612caa816131e2565b82525050565b6000612cbc82856129d7565b9150612cc882846129d7565b91508190509392505050565b6000602082019050612ce96000830184612947565b92915050565b6000608082019050612d046000830187612947565b612d116020830186612947565b612d1e6040830185612ca1565b8181036060830152612d308184612965565b905095945050505050565b6000602082019050612d506000830184612956565b92915050565b60006020820190508181036000830152612d70818461299e565b905092915050565b60006020820190508181036000830152612d9181612a08565b9050919050565b60006020820190508181036000830152612db181612a2b565b9050919050565b60006020820190508181036000830152612dd181612a4e565b9050919050565b60006020820190508181036000830152612df181612a71565b9050919050565b60006020820190508181036000830152612e1181612a94565b9050919050565b60006020820190508181036000830152612e3181612ab7565b9050919050565b60006020820190508181036000830152612e5181612ada565b9050919050565b60006020820190508181036000830152612e7181612afd565b9050919050565b60006020820190508181036000830152612e9181612b20565b9050919050565b60006020820190508181036000830152612eb181612b43565b9050919050565b60006020820190508181036000830152612ed181612b66565b9050919050565b60006020820190508181036000830152612ef181612b89565b9050919050565b60006020820190508181036000830152612f1181612bac565b9050919050565b60006020820190508181036000830152612f3181612bcf565b9050919050565b60006020820190508181036000830152612f5181612bf2565b9050919050565b60006020820190508181036000830152612f7181612c15565b9050919050565b60006020820190508181036000830152612f9181612c38565b9050919050565b60006020820190508181036000830152612fb181612c5b565b9050919050565b60006020820190508181036000830152612fd181612c7e565b9050919050565b6000602082019050612fed6000830184612ca1565b92915050565b6000612ffd61300e565b90506130098282613260565b919050565b6000604051905090565b600067ffffffffffffffff82111561303357613032613398565b5b61303c826133c7565b9050602081019050919050565b600067ffffffffffffffff82111561306457613063613398565b5b61306d826133c7565b9050602081019050919050565b600081519050919050565b600081519050919050565b600082825260208201905092915050565b600082825260208201905092915050565b600081905092915050565b60006130c8826131e2565b91506130d3836131e2565b9250827fffffffffffffffffffffffffffffffffffffffffffffffffffffffffffffffff038211156131085761310761330b565b5b828201905092915050565b600061311e826131e2565b9150613129836131e2565b9250826131395761313861333a565b5b828204905092915050565b600061314f826131e2565b915061315a836131e2565b92508282101561316d5761316c61330b565b5b828203905092915050565b6000613183826131c2565b9050919050565b60008115159050919050565b60007fffffffff0000000000000000000000000000000000000000000000000000000082169050919050565b600073ffffffffffffffffffffffffffffffffffffffff82169050919050565b6000819050919050565b82818337600083830152505050565b60005b838110156132195780820151818401526020810190506131fe565b83811115613228576000848401525b50505050565b6000600282049050600182168061324657607f821691505b6020821081141561325a57613259613369565b5b50919050565b613269826133c7565b810181811067ffffffffffffffff8211171561328857613287613398565b5b80604052505050565b600061329c826131e2565b91507fffffffffffffffffffffffffffffffffffffffffffffffffffffffffffffffff8214156132cf576132ce61330b565b5b600182019050919050565b60006132e5826131e2565b91506132f0836131e2565b925082613300576132ff61333a565b5b828206905092915050565b7f4e487b7100000000000000000000000000000000000000000000000000000000600052601160045260246000fd5b7f4e487b7100000000000000000000000000000000000000000000000000000000600052601260045260246000fd5b7f4e487b7100000000000000000000000000000000000000000000000000000000600052602260045260246000fd5b7f4e487b7100000000000000000000000000000000000000000000000000000000600052604160045260246000fd5b6000601f19601f8301169050919050565b7f455243373231456e756d657261626c653a206f776e657220696e646578206f7560008201527f74206f6620626f756e6473000000000000000000000000000000000000000000602082015250565b7f4552433732313a207472616e7366657220746f206e6f6e20455243373231526560008201527f63656976657220696d706c656d656e7465720000000000000000000000000000602082015250565b7f4f776e61626c653a206e6577206f776e657220697320746865207a65726f206160008201527f6464726573730000000000000000000000000000000000000000000000000000602082015250565b7f4552433732313a207472616e736665722066726f6d20696e636f72726563742060008201527f6f776e6572000000000000000000000000000000000000000000000000000000602082015250565b7f4552433732313a20746f6b656e20616c7265616479206d696e74656400000000600082015250565b7f4552433732313a207472616e7366657220746f20746865207a65726f2061646460008201527f7265737300000000000000000000000000000000000000000000000000000000602082015250565b7f4552433732313a20617070726f766520746f2063616c6c657200000000000000600082015250565b7f546f6b656e20646f6573206e6f74206578697374000000000000000000000000600082015250565b7f4552433732313a206f70657261746f7220717565727920666f72206e6f6e657860008201527f697374656e7420746f6b656e0000000000000000000000000000000000000000602082015250565b7f4552433732313a20617070726f76652063616c6c6572206973206e6f74206f7760008201527f6e6572206e6f7220617070726f76656420666f7220616c6c0000000000000000602082015250565b7f4552433732313a2062616c616e636520717565727920666f7220746865207a6560008201527f726f206164647265737300000000000000000000000000000000000000000000602082015250565b7f4552433732313a206f776e657220717565727920666f72206e6f6e657869737460008201527f656e7420746f6b656e0000000000000000000000000000000000000000000000602082015250565b7f4552433732313a206d696e7420746f20746865207a65726f2061646472657373600082015250565b7f4552433732313a20617070726f76656420717565727920666f72206e6f6e657860008201527f697374656e7420746f6b656e0000000000000000000000000000000000000000602082015250565b7f4f776e61626c653a2063616c6c6572206973206e6f7420746865206f776e6572600082015250565b7f4552433732314d657461646174613a2055524920717565727920666f72206e6f60008201527f6e6578697374656e7420746f6b656e0000000000000000000000000000000000602082015250565b7f4552433732313a20617070726f76616c20746f2063757272656e74206f776e6560008201527f7200000000000000000000000000000000000000000000000000000000000000602082015250565b7f4552433732313a207472616e736665722063616c6c6572206973206e6f74206f60008201527f776e6572206e6f7220617070726f766564000000000000000000000000000000602082015250565b7f455243373231456e756d657261626c653a20676c6f62616c20696e646578206f60008201527f7574206f6620626f756e64730000000000000000000000000000000000000000602082015250565b61390081613178565b811461390b57600080fd5b50565b6139178161318a565b811461392257600080fd5b50565b61392e81613196565b811461393957600080fd5b50565b613945816131e2565b811461395057600080fd5b5056fea26469706673582212204963c34ff132d2a3e51503894fc6ac87b75f376e4bac66802a1129b48ab4d87f64736f6c63430008030033",
  "immutableReferences": {},
  "source": "pragma solidity ^0.8.0;\n\nimport \"@openzeppelin/contracts/token/ERC721/ERC721.sol\";\nimport \"@openzeppelin/contracts/token/ERC721/extensions/ERC721Enumerable.sol\";\nimport \"@openzeppelin/contracts/token/ERC721/extensions/ERC721Burnable.sol\";\nimport \"@openzeppelin/contracts/access/Ownable.sol\";\nimport \"@openzeppelin/contracts/access/AccessControl.sol\";\nimport \"@openzeppelin/contracts/utils/Counters.sol\";\n\n\ncontract NewoData is ERC721Enumerable, Ownable {\n\n    using Counters for Counters.Counter;\n    Counters.Counter private _tokenIds;\n\n    mapping(uint256 => string) private profileStreamIds;\n    // need a mapping from token id to friends stream id\n    mapping(uint256 => string) private friendStreamIds;\n    // need a mapping from token id to posts stream id\n    mapping(uint256 => string) private postStreamIds;\n\n    // need a mapping from token owner address to token id\n    mapping(address => uint256) private addressToTokenId;\n\n    constructor() ERC721(\"NewoData\", \"NEWO\") {\n\n    }\n\n\n    function mintNewo(string memory profile, string memory friends, string memory posts) public {\n\n        _tokenIds.increment();\n        uint256 newTokenId = _tokenIds.current();\n\n        profileStreamIds[newTokenId] = profile;\n        friendStreamIds[newTokenId] = friends;\n        postStreamIds[newTokenId] = posts;\n        \n        _safeMint(msg.sender, newTokenId);\n\n    }\n\n    function getProfile(uint256 tokId) public view returns (string memory) {\n        require(\n            _exists(tokId),\n            \"Token does not exist\"\n        );\n        return profileStreamIds[tokId];\n    }\n\n    function getFriends(uint256 tokId) public view returns (string memory) {\n        require(\n            _exists(tokId),\n            \"Token does not exist\"\n        );\n\n        return friendStreamIds[tokId];\n    }\n\n    function getPosts(uint256 tokId) public view returns (string memory) {\n        require(\n            _exists(tokId),\n            \"Token does not exist\"\n        );\n\n        return postStreamIds[tokId];\n    }\n}",
  "sourcePath": "/Users/zainal-qaimi/ThirdYearProject/third-year-project/Nemo/Truffle/contracts/NewoData.sol",
  "compiler": {
    "name": "solc",
    "version": "0.8.3+commit.8d00100c.Emscripten.clang"
  },
  "schemaVersion": "3.4.3",
  "updatedAt": "2022-03-31T20:32:38.009Z",
  "networkType": "ethereum",
  "devdoc": {
    "kind": "dev",
    "methods": {
      "approve(address,uint256)": {
        "details": "See {IERC721-approve}."
      },
      "balanceOf(address)": {
        "details": "See {IERC721-balanceOf}."
      },
      "getApproved(uint256)": {
        "details": "See {IERC721-getApproved}."
      },
      "isApprovedForAll(address,address)": {
        "details": "See {IERC721-isApprovedForAll}."
      },
      "name()": {
        "details": "See {IERC721Metadata-name}."
      },
      "owner()": {
        "details": "Returns the address of the current owner."
      },
      "ownerOf(uint256)": {
        "details": "See {IERC721-ownerOf}."
      },
      "renounceOwnership()": {
        "details": "Leaves the contract without owner. It will not be possible to call `onlyOwner` functions anymore. Can only be called by the current owner. NOTE: Renouncing ownership will leave the contract without an owner, thereby removing any functionality that is only available to the owner."
      },
      "safeTransferFrom(address,address,uint256)": {
        "details": "See {IERC721-safeTransferFrom}."
      },
      "safeTransferFrom(address,address,uint256,bytes)": {
        "details": "See {IERC721-safeTransferFrom}."
      },
      "setApprovalForAll(address,bool)": {
        "details": "See {IERC721-setApprovalForAll}."
      },
      "supportsInterface(bytes4)": {
        "details": "See {IERC165-supportsInterface}."
      },
      "symbol()": {
        "details": "See {IERC721Metadata-symbol}."
      },
      "tokenByIndex(uint256)": {
        "details": "See {IERC721Enumerable-tokenByIndex}."
      },
      "tokenOfOwnerByIndex(address,uint256)": {
        "details": "See {IERC721Enumerable-tokenOfOwnerByIndex}."
      },
      "tokenURI(uint256)": {
        "details": "See {IERC721Metadata-tokenURI}."
      },
      "totalSupply()": {
        "details": "See {IERC721Enumerable-totalSupply}."
      },
      "transferFrom(address,address,uint256)": {
        "details": "See {IERC721-transferFrom}."
      },
      "transferOwnership(address)": {
        "details": "Transfers ownership of the contract to a new account (`newOwner`). Can only be called by the current owner."
      }
    },
    "version": 1
  },
  "userdoc": {
    "kind": "user",
    "methods": {},
    "version": 1
  }
}